{
  "contractName": "Airline",
  "abi": [
    {
      "inputs": [],
      "payable": false,
      "stateMutability": "nonpayable",
      "type": "constructor"
    },
    {
      "anonymous": false,
      "inputs": [
        {
          "indexed": true,
          "internalType": "address",
          "name": "customer",
          "type": "address"
        },
        {
          "indexed": false,
          "internalType": "uint256",
          "name": "price",
          "type": "uint256"
        },
        {
          "indexed": false,
          "internalType": "string",
          "name": "flight",
          "type": "string"
        }
      ],
      "name": "FlightPurchased",
      "type": "event"
    },
    {
      "constant": true,
      "inputs": [
        {
          "internalType": "address",
          "name": "",
          "type": "address"
        },
        {
          "internalType": "uint256",
          "name": "",
          "type": "uint256"
        }
      ],
      "name": "customerFLights",
      "outputs": [
        {
          "internalType": "string",
          "name": "name",
          "type": "string"
        },
        {
          "internalType": "uint256",
          "name": "price",
          "type": "uint256"
        }
      ],
      "payable": false,
      "stateMutability": "view",
      "type": "function"
    },
    {
      "constant": true,
      "inputs": [
        {
          "internalType": "address",
          "name": "",
          "type": "address"
        }
      ],
      "name": "customerTotalFLights",
      "outputs": [
        {
          "internalType": "uint256",
          "name": "",
          "type": "uint256"
        }
      ],
      "payable": false,
      "stateMutability": "view",
      "type": "function"
    },
    {
      "constant": true,
      "inputs": [
        {
          "internalType": "address",
          "name": "",
          "type": "address"
        }
      ],
      "name": "customers",
      "outputs": [
        {
          "internalType": "uint256",
          "name": "loyaltyPoints",
          "type": "uint256"
        },
        {
          "internalType": "uint256",
          "name": "totalFlights",
          "type": "uint256"
        }
      ],
      "payable": false,
      "stateMutability": "view",
      "type": "function"
    },
    {
      "constant": true,
      "inputs": [
        {
          "internalType": "uint256",
          "name": "",
          "type": "uint256"
        }
      ],
      "name": "flights",
      "outputs": [
        {
          "internalType": "string",
          "name": "name",
          "type": "string"
        },
        {
          "internalType": "uint256",
          "name": "price",
          "type": "uint256"
        }
      ],
      "payable": false,
      "stateMutability": "view",
      "type": "function"
    },
    {
      "constant": true,
      "inputs": [],
      "name": "owner",
      "outputs": [
        {
          "internalType": "address",
          "name": "",
          "type": "address"
        }
      ],
      "payable": false,
      "stateMutability": "view",
      "type": "function"
    },
    {
      "constant": false,
      "inputs": [
        {
          "internalType": "uint256",
          "name": "flightIndex",
          "type": "uint256"
        }
      ],
      "name": "buyFlight",
      "outputs": [],
      "payable": true,
      "stateMutability": "payable",
      "type": "function"
    },
    {
      "constant": true,
      "inputs": [],
      "name": "totalFlights",
      "outputs": [
        {
          "internalType": "uint256",
          "name": "",
          "type": "uint256"
        }
      ],
      "payable": false,
      "stateMutability": "view",
      "type": "function"
    },
    {
      "constant": false,
      "inputs": [],
      "name": "redeemLoyaltyPoints",
      "outputs": [],
      "payable": false,
      "stateMutability": "nonpayable",
      "type": "function"
    },
    {
      "constant": true,
      "inputs": [],
      "name": "getRefundableEther",
      "outputs": [
        {
          "internalType": "uint256",
          "name": "",
          "type": "uint256"
        }
      ],
      "payable": false,
      "stateMutability": "view",
      "type": "function"
    },
    {
      "constant": true,
      "inputs": [],
      "name": "getAirlineBalance",
      "outputs": [
        {
          "internalType": "uint256",
          "name": "",
          "type": "uint256"
        }
      ],
      "payable": false,
      "stateMutability": "view",
      "type": "function"
    }
  ],
  "bytecode": "0x60806040526706f05b59d3b2000060015534801561001c57600080fd5b50336000806101000a81548173ffffffffffffffffffffffffffffffffffffffff021916908373ffffffffffffffffffffffffffffffffffffffff160217905550600260405180604001604052806040518060400160405280600581526020017f546f6b696f0000000000000000000000000000000000000000000000000000008152508152602001673782dace9d9000008152509080600181540180825580915050906001820390600052602060002090600202016000909192909190915060008201518160000190805190602001906100f892919061025d565b5060208201518160010155505050600260405180604001604052806040518060400160405280600681526020017f4265726c696e000000000000000000000000000000000000000000000000000081525081526020016729a2241af62c00008152509080600181540180825580915050906001820390600052602060002090600202016000909192909190915060008201518160000190805190602001906101a192919061025d565b5060208201518160010155505050600260405180604001604052806040518060400160405280600681526020017f4d6164726972000000000000000000000000000000000000000000000000000081525081526020016729a2241af62c000081525090806001815401808255809150509060018203906000526020600020906002020160009091929091909150600082015181600001908051906020019061024a92919061025d565b5060208201518160010155505050610302565b828054600181600116156101000203166002900490600052602060002090601f016020900481019282601f1061029e57805160ff19168380011785556102cc565b828001600101855582156102cc579182015b828111156102cb5782518255916020019190600101906102b0565b5b5090506102d991906102dd565b5090565b6102ff91905b808211156102fb5760008160009055506001016102e3565b5090565b90565b610c6a806103116000396000f3fe6080604052600436106100915760003560e01c80633a4fd19e116100595780633a4fd19e146102415780633daffdfd1461031c5780634bf02e7a146103815780638da5cb5b146103ac578063f997114f1461040357610091565b80630ca97e481461009657806315ccf70f146100c45780632411ff731461017f57806329cd30b4146101aa578063336989ae146101d5575b600080fd5b6100c2600480360360208110156100ac57600080fd5b810190808035906020019092919050505061041a565b005b3480156100d057600080fd5b506100fd600480360360208110156100e757600080fd5b8101908080359060200190929190505050610784565b6040518080602001838152602001828103825284818151815260200191508051906020019080838360005b83811015610143578082015181840152602081019050610128565b50505050905090810190601f1680156101705780820380516001836020036101000a031916815260200191505b50935050505060405180910390f35b34801561018b57600080fd5b5061019461084d565b6040518082815260200191505060405180910390f35b3480156101b657600080fd5b506101bf61089b565b6040518082815260200191505060405180910390f35b3480156101e157600080fd5b50610224600480360360208110156101f857600080fd5b81019080803573ffffffffffffffffffffffffffffffffffffffff169060200190929190505050610965565b604051808381526020018281526020019250505060405180910390f35b34801561024d57600080fd5b5061029a6004803603604081101561026457600080fd5b81019080803573ffffffffffffffffffffffffffffffffffffffff16906020019092919080359060200190929190505050610989565b6040518080602001838152602001828103825284818151815260200191508051906020019080838360005b838110156102e05780820151818401526020810190506102c5565b50505050905090810190601f16801561030d5780820380516001836020036101000a031916815260200191505b50935050505060405180910390f35b34801561032857600080fd5b5061036b6004803603602081101561033f57600080fd5b81019080803573ffffffffffffffffffffffffffffffffffffffff169060200190929190505050610a5f565b6040518082815260200191505060405180910390f35b34801561038d57600080fd5b50610396610a77565b6040518082815260200191505060405180910390f35b3480156103b857600080fd5b506103c1610a84565b604051808273ffffffffffffffffffffffffffffffffffffffff1673ffffffffffffffffffffffffffffffffffffffff16815260200191505060405180910390f35b34801561040f57600080fd5b50610418610aa9565b005b610422610b4e565b6002828154811061042f57fe5b9060005260206000209060020201604051806040016040529081600082018054600181600116156101000203166002900480601f0160208091040260200160405190810160405280929190818152602001828054600181600116156101000203166002900480156104e15780601f106104b6576101008083540402835291602001916104e1565b820191906000526020600020905b8154815290600101906020018083116104c457829003601f168201915b5050505050815260200160018201548152505090508060200151341461056f576040517f08c379a00000000000000000000000000000000000000000000000000000000081526004018080602001828103825260158152602001807f5265717569726520746f2070617920666c69676874000000000000000000000081525060200191505060405180910390fd5b6000600360003373ffffffffffffffffffffffffffffffffffffffff1673ffffffffffffffffffffffffffffffffffffffff16815260200190815260200160002090506005816000016000828254019250508190555060018160010160008282540192505081905550600460003373ffffffffffffffffffffffffffffffffffffffff1673ffffffffffffffffffffffffffffffffffffffff1681526020019081526020016000208290806001815401808255809150509060018203906000526020600020906002020160009091929091909150600082015181600001908051906020019061065f929190610b68565b5060208201518160010155505050600560003373ffffffffffffffffffffffffffffffffffffffff1673ffffffffffffffffffffffffffffffffffffffff168152602001908152602001600020600081548092919060010191905055503373ffffffffffffffffffffffffffffffffffffffff167f1a02c9b180301ecb4108648e8e1cd231f2857cc169519367000f7380f57566c4836020015184600001516040518083815260200180602001828103825283818151815260200191508051906020019080838360005b83811015610744578082015181840152602081019050610729565b50505050905090810190601f1680156107715780820380516001836020036101000a031916815260200191505b50935050505060405180910390a2505050565b6002818154811061079157fe5b9060005260206000209060020201600091509050806000018054600181600116156101000203166002900480601f01602080910402602001604051908101604052809291908181526020018280546001816001161561010002031660029004801561083d5780601f106108125761010080835404028352916020019161083d565b820191906000526020600020905b81548152906001019060200180831161082057829003601f168201915b5050505050908060010154905082565b6000600360003373ffffffffffffffffffffffffffffffffffffffff1673ffffffffffffffffffffffffffffffffffffffff1681526020019081526020016000206000015460015402905090565b60008060009054906101000a900473ffffffffffffffffffffffffffffffffffffffff1673ffffffffffffffffffffffffffffffffffffffff163373ffffffffffffffffffffffffffffffffffffffff1614610942576040517f08c379a0000000000000000000000000000000000000000000000000000000008152600401808060200182810382526028815260200180610c0e6028913960400191505060405180910390fd5b60003090508073ffffffffffffffffffffffffffffffffffffffff163191505090565b60036020528060005260406000206000915090508060000154908060010154905082565b600460205281600052604060002081815481106109a257fe5b906000526020600020906002020160009150915050806000018054600181600116156101000203166002900480601f016020809104026020016040519081016040528092919081815260200182805460018160011615610100020316600290048015610a4f5780601f10610a2457610100808354040283529160200191610a4f565b820191906000526020600020905b815481529060010190602001808311610a3257829003601f168201915b5050505050908060010154905082565b60056020528060005260406000206000915090505481565b6000600280549050905090565b6000809054906101000a900473ffffffffffffffffffffffffffffffffffffffff1681565b6000600360003373ffffffffffffffffffffffffffffffffffffffff1673ffffffffffffffffffffffffffffffffffffffff1681526020019081526020016000209050600081600001546001540290503373ffffffffffffffffffffffffffffffffffffffff166108fc829081150290604051600060405180830381858888f19350505050158015610b3f573d6000803e3d6000fd5b50600082600001819055505050565b604051806040016040528060608152602001600081525090565b828054600181600116156101000203166002900490600052602060002090601f016020900481019282601f10610ba957805160ff1916838001178555610bd7565b82800160010185558215610bd7579182015b82811115610bd6578251825591602001919060010190610bbb565b5b509050610be49190610be8565b5090565b610c0a91905b80821115610c06576000816000905550600101610bee565b5090565b9056fe6f6e6c7920746865206f776e65722063616e20746f2063616c6c20746869732066756e6374696f6ea265627a7a723158202394556cd2dd099df16dc452f0eea8ddaf5247551bc430ef80cd70c4aa58b23864736f6c63430005100032",
  "source": "// SPDX-License-Identifier: MIT\r\npragma solidity >=0.4.21 <0.7.0;\r\n\r\ncontract Airline {\r\n\r\n    address public owner;\r\n    struct Customer {\r\n        uint loyaltyPoints;\r\n        uint totalFlights;\r\n    }\r\n\r\n    struct Flight {\r\n        string name;\r\n        uint price;\r\n    }\r\n\r\n    uint etherPerPoint = 0.5 ether;\r\n\r\n    Flight[] public flights;\r\n\r\n    mapping(address => Customer) public customers;\r\n    mapping(address => Flight[]) public customerFLights;\r\n    mapping(address => uint) public customerTotalFLights;\r\n\r\n    event FlightPurchased(address indexed customer, uint price, string flight);\r\n\r\n    constructor() public {\r\n        owner = msg.sender;\r\n        flights.push(Flight(\"Tokio\", 4 ether));\r\n        flights.push(Flight(\"Berlin\", 3 ether));\r\n        flights.push(Flight(\"Madrir\", 3 ether));\r\n    }\r\n\r\n    function buyFlight(uint flightIndex) public payable {\r\n        Flight memory flight = flights[flightIndex];\r\n        require(msg.value == flight.price, \"Require to pay flight\");\r\n\r\n        Customer storage customer = customers[msg.sender];\r\n        customer.loyaltyPoints += 5;\r\n        customer.totalFlights += 1;\r\n        customerFLights[msg.sender].push(flight);\r\n        customerTotalFLights[msg.sender]++;\r\n\r\n        emit FlightPurchased(msg.sender, flight.price, flight.name);\r\n    }\r\n\r\n    function totalFlights() public view returns (uint) {\r\n        return flights.length;\r\n    }\r\n\r\n    function redeemLoyaltyPoints() public {\r\n        Customer storage customer = customers[msg.sender];\r\n        uint etherToRefund = etherPerPoint * customer.loyaltyPoints;\r\n        msg.sender.transfer(etherToRefund);\r\n        customer.loyaltyPoints = 0;\r\n    }\r\n\r\n    function getRefundableEther() public view returns (uint) {\r\n        return etherPerPoint * customers[msg.sender].loyaltyPoints;\r\n    }\r\n\r\n    function getAirlineBalance() public isOwner view returns (uint) {\r\n        address airlineAddress = address(this);\r\n        return airlineAddress.balance;\r\n    }\r\n\r\n    modifier  isOwner() {\r\n        require(msg.sender == owner, 'only the owner can to call this function');\r\n        _;\r\n    }\r\n}\r\n",
  "sourcePath": "C:\\Users\\fabre\\Documents\\dapp-truffle-react-demo\\contracts\\Airline.sol",
  "compiler": {
    "name": "solc",
    "version": "0.5.16+commit.9c3226ce.Emscripten.clang"
  },
  "schemaVersion": "3.2.0",
  "updatedAt": "2020-06-16T04:34:11.266Z",
  "devdoc": {
    "methods": {}
  },
  "userdoc": {
    "methods": {}
  }
}